{
  "_format": "hh-sol-artifact-1",
  "contractName": "MyNFT",
  "sourceName": "contracts/scf.sol",
  "abi": [
    {
      "inputs": [],
      "stateMutability": "nonpayable",
      "type": "constructor"
    },
    {
      "anonymous": false,
      "inputs": [
        {
          "indexed": true,
          "internalType": "address",
          "name": "owner",
          "type": "address"
        },
        {
          "indexed": true,
          "internalType": "address",
          "name": "approved",
          "type": "address"
        },
        {
          "indexed": true,
          "internalType": "uint256",
          "name": "tokenId",
          "type": "uint256"
        }
      ],
      "name": "Approval",
      "type": "event"
    },
    {
      "anonymous": false,
      "inputs": [
        {
          "indexed": true,
          "internalType": "address",
          "name": "owner",
          "type": "address"
        },
        {
          "indexed": true,
          "internalType": "address",
          "name": "operator",
          "type": "address"
        },
        {
          "indexed": false,
          "internalType": "bool",
          "name": "approved",
          "type": "bool"
        }
      ],
      "name": "ApprovalForAll",
      "type": "event"
    },
    {
      "anonymous": false,
      "inputs": [
        {
          "indexed": true,
          "internalType": "address",
          "name": "previousOwner",
          "type": "address"
        },
        {
          "indexed": true,
          "internalType": "address",
          "name": "newOwner",
          "type": "address"
        }
      ],
      "name": "OwnershipTransferred",
      "type": "event"
    },
    {
      "anonymous": false,
      "inputs": [
        {
          "indexed": true,
          "internalType": "address",
          "name": "from",
          "type": "address"
        },
        {
          "indexed": true,
          "internalType": "address",
          "name": "to",
          "type": "address"
        },
        {
          "indexed": true,
          "internalType": "uint256",
          "name": "tokenId",
          "type": "uint256"
        }
      ],
      "name": "Transfer",
      "type": "event"
    },
    {
      "inputs": [
        {
          "internalType": "address",
          "name": "",
          "type": "address"
        }
      ],
      "name": "FIs",
      "outputs": [
        {
          "internalType": "string",
          "name": "fName",
          "type": "string"
        },
        {
          "internalType": "uint256",
          "name": "fId",
          "type": "uint256"
        }
      ],
      "stateMutability": "view",
      "type": "function"
    },
    {
      "inputs": [
        {
          "internalType": "uint256",
          "name": "",
          "type": "uint256"
        }
      ],
      "name": "NFTsMapping",
      "outputs": [
        {
          "internalType": "uint256",
          "name": "",
          "type": "uint256"
        }
      ],
      "stateMutability": "view",
      "type": "function"
    },
    {
      "inputs": [
        {
          "internalType": "address",
          "name": "to",
          "type": "address"
        },
        {
          "internalType": "uint256",
          "name": "tokenId",
          "type": "uint256"
        }
      ],
      "name": "approve",
      "outputs": [],
      "stateMutability": "nonpayable",
      "type": "function"
    },
    {
      "inputs": [
        {
          "internalType": "address",
          "name": "owner",
          "type": "address"
        }
      ],
      "name": "balanceOf",
      "outputs": [
        {
          "internalType": "uint256",
          "name": "",
          "type": "uint256"
        }
      ],
      "stateMutability": "view",
      "type": "function"
    },
    {
      "inputs": [
        {
          "internalType": "address",
          "name": "",
          "type": "address"
        }
      ],
      "name": "buyers",
      "outputs": [
        {
          "internalType": "string",
          "name": "bName",
          "type": "string"
        },
        {
          "internalType": "uint256",
          "name": "bId",
          "type": "uint256"
        }
      ],
      "stateMutability": "view",
      "type": "function"
    },
    {
      "inputs": [
        {
          "internalType": "address",
          "name": "recipient_supplier",
          "type": "address"
        },
        {
          "internalType": "string",
          "name": "tokenURI",
          "type": "string"
        },
        {
          "internalType": "uint256",
          "name": "invoiceNFT_token_id",
          "type": "uint256"
        }
      ],
      "name": "createRNFT",
      "outputs": [
        {
          "internalType": "uint256",
          "name": "",
          "type": "uint256"
        }
      ],
      "stateMutability": "nonpayable",
      "type": "function"
    },
    {
      "inputs": [
        {
          "internalType": "address",
          "name": "recipient_buyer",
          "type": "address"
        },
        {
          "internalType": "string",
          "name": "tokenURI",
          "type": "string"
        },
        {
          "internalType": "uint256",
          "name": "_price",
          "type": "uint256"
        }
      ],
      "name": "createinvoiceNFT",
      "outputs": [
        {
          "internalType": "uint256",
          "name": "",
          "type": "uint256"
        }
      ],
      "stateMutability": "nonpayable",
      "type": "function"
    },
    {
      "inputs": [
        {
          "internalType": "uint256",
          "name": "tokenId",
          "type": "uint256"
        }
      ],
      "name": "getApproved",
      "outputs": [
        {
          "internalType": "address",
          "name": "",
          "type": "address"
        }
      ],
      "stateMutability": "view",
      "type": "function"
    },
    {
      "inputs": [
        {
          "internalType": "address",
          "name": "owner",
          "type": "address"
        },
        {
          "internalType": "address",
          "name": "operator",
          "type": "address"
        }
      ],
      "name": "isApprovedForAll",
      "outputs": [
        {
          "internalType": "bool",
          "name": "",
          "type": "bool"
        }
      ],
      "stateMutability": "view",
      "type": "function"
    },
    {
      "inputs": [],
      "name": "name",
      "outputs": [
        {
          "internalType": "string",
          "name": "",
          "type": "string"
        }
      ],
      "stateMutability": "view",
      "type": "function"
    },
    {
      "inputs": [],
      "name": "owner",
      "outputs": [
        {
          "internalType": "address",
          "name": "",
          "type": "address"
        }
      ],
      "stateMutability": "view",
      "type": "function"
    },
    {
      "inputs": [
        {
          "internalType": "uint256",
          "name": "tokenId",
          "type": "uint256"
        }
      ],
      "name": "ownerOf",
      "outputs": [
        {
          "internalType": "address",
          "name": "",
          "type": "address"
        }
      ],
      "stateMutability": "view",
      "type": "function"
    },
    {
      "inputs": [],
      "name": "ownerSCMS",
      "outputs": [
        {
          "internalType": "address",
          "name": "",
          "type": "address"
        }
      ],
      "stateMutability": "view",
      "type": "function"
    },
    {
      "inputs": [
        {
          "internalType": "uint256",
          "name": "",
          "type": "uint256"
        }
      ],
      "name": "prices",
      "outputs": [
        {
          "internalType": "uint256",
          "name": "",
          "type": "uint256"
        }
      ],
      "stateMutability": "view",
      "type": "function"
    },
    {
      "inputs": [
        {
          "internalType": "address payable",
          "name": "supplier_add",
          "type": "address"
        },
        {
          "internalType": "uint256",
          "name": "token_id",
          "type": "uint256"
        }
      ],
      "name": "release_fund",
      "outputs": [],
      "stateMutability": "payable",
      "type": "function"
    },
    {
      "inputs": [],
      "name": "renounceOwnership",
      "outputs": [],
      "stateMutability": "nonpayable",
      "type": "function"
    },
    {
      "inputs": [
        {
          "internalType": "address",
          "name": "from",
          "type": "address"
        },
        {
          "internalType": "address",
          "name": "to",
          "type": "address"
        },
        {
          "internalType": "uint256",
          "name": "tokenId",
          "type": "uint256"
        }
      ],
      "name": "safeTransferFrom",
      "outputs": [],
      "stateMutability": "nonpayable",
      "type": "function"
    },
    {
      "inputs": [
        {
          "internalType": "address",
          "name": "from",
          "type": "address"
        },
        {
          "internalType": "address",
          "name": "to",
          "type": "address"
        },
        {
          "internalType": "uint256",
          "name": "tokenId",
          "type": "uint256"
        },
        {
          "internalType": "bytes",
          "name": "data",
          "type": "bytes"
        }
      ],
      "name": "safeTransferFrom",
      "outputs": [],
      "stateMutability": "nonpayable",
      "type": "function"
    },
    {
      "inputs": [
        {
          "internalType": "address",
          "name": "operator",
          "type": "address"
        },
        {
          "internalType": "bool",
          "name": "approved",
          "type": "bool"
        }
      ],
      "name": "setApprovalForAll",
      "outputs": [],
      "stateMutability": "nonpayable",
      "type": "function"
    },
    {
      "inputs": [
        {
          "internalType": "address",
          "name": "_FI",
          "type": "address"
        },
        {
          "internalType": "string",
          "name": "_fName",
          "type": "string"
        },
        {
          "internalType": "uint256",
          "name": "_fId",
          "type": "uint256"
        }
      ],
      "name": "setFI",
      "outputs": [],
      "stateMutability": "nonpayable",
      "type": "function"
    },
    {
      "inputs": [
        {
          "internalType": "address",
          "name": "_supplier",
          "type": "address"
        },
        {
          "internalType": "string",
          "name": "_sName",
          "type": "string"
        },
        {
          "internalType": "uint256",
          "name": "_sId",
          "type": "uint256"
        }
      ],
      "name": "setSupplier",
      "outputs": [],
      "stateMutability": "nonpayable",
      "type": "function"
    },
    {
      "inputs": [
        {
          "internalType": "address",
          "name": "_buyer",
          "type": "address"
        },
        {
          "internalType": "string",
          "name": "_bName",
          "type": "string"
        },
        {
          "internalType": "uint256",
          "name": "_bId",
          "type": "uint256"
        }
      ],
      "name": "setbuyer",
      "outputs": [],
      "stateMutability": "nonpayable",
      "type": "function"
    },
    {
      "inputs": [
        {
          "internalType": "address",
          "name": "",
          "type": "address"
        }
      ],
      "name": "suppliers",
      "outputs": [
        {
          "internalType": "string",
          "name": "sName",
          "type": "string"
        },
        {
          "internalType": "uint256",
          "name": "sId",
          "type": "uint256"
        }
      ],
      "stateMutability": "view",
      "type": "function"
    },
    {
      "inputs": [
        {
          "internalType": "bytes4",
          "name": "interfaceId",
          "type": "bytes4"
        }
      ],
      "name": "supportsInterface",
      "outputs": [
        {
          "internalType": "bool",
          "name": "",
          "type": "bool"
        }
      ],
      "stateMutability": "view",
      "type": "function"
    },
    {
      "inputs": [],
      "name": "symbol",
      "outputs": [
        {
          "internalType": "string",
          "name": "",
          "type": "string"
        }
      ],
      "stateMutability": "view",
      "type": "function"
    },
    {
      "inputs": [
        {
          "internalType": "uint256",
          "name": "tokenId",
          "type": "uint256"
        }
      ],
      "name": "tokenURI",
      "outputs": [
        {
          "internalType": "string",
          "name": "",
          "type": "string"
        }
      ],
      "stateMutability": "view",
      "type": "function"
    },
    {
      "inputs": [
        {
          "internalType": "address",
          "name": "from",
          "type": "address"
        },
        {
          "internalType": "address",
          "name": "to",
          "type": "address"
        },
        {
          "internalType": "uint256",
          "name": "tokenId",
          "type": "uint256"
        }
      ],
      "name": "transferFrom",
      "outputs": [],
      "stateMutability": "nonpayable",
      "type": "function"
    },
    {
      "inputs": [
        {
          "internalType": "address",
          "name": "newOwner",
          "type": "address"
        }
      ],
      "name": "transferOwnership",
      "outputs": [],
      "stateMutability": "nonpayable",
      "type": "function"
    }
  ],
  "bytecode": "0x60806040523480156200001157600080fd5b506040518060400160405280600981526020017f4d61737465724e465400000000000000000000000000000000000000000000008152506040518060400160405280600a81526020017f696e766f6963654e46540000000000000000000000000000000000000000000081525081600090816200008f919062000453565b508060019081620000a1919062000453565b505050620000c4620000b86200010b60201b60201c565b6200011360201b60201c565b33600960006101000a81548173ffffffffffffffffffffffffffffffffffffffff021916908373ffffffffffffffffffffffffffffffffffffffff1602179055506200053a565b600033905090565b6000600760009054906101000a900473ffffffffffffffffffffffffffffffffffffffff16905081600760006101000a81548173ffffffffffffffffffffffffffffffffffffffff021916908373ffffffffffffffffffffffffffffffffffffffff1602179055508173ffffffffffffffffffffffffffffffffffffffff168173ffffffffffffffffffffffffffffffffffffffff167f8be0079c531659141344cd1fd0a4f28419497f9722a3daafe3b4186f6b6457e060405160405180910390a35050565b600081519050919050565b7f4e487b7100000000000000000000000000000000000000000000000000000000600052604160045260246000fd5b7f4e487b7100000000000000000000000000000000000000000000000000000000600052602260045260246000fd5b600060028204905060018216806200025b57607f821691505b60208210810362000271576200027062000213565b5b50919050565b60008190508160005260206000209050919050565b60006020601f8301049050919050565b600082821b905092915050565b600060088302620002db7fffffffffffffffffffffffffffffffffffffffffffffffffffffffffffffffff826200029c565b620002e786836200029c565b95508019841693508086168417925050509392505050565b6000819050919050565b6000819050919050565b6000620003346200032e6200032884620002ff565b62000309565b620002ff565b9050919050565b6000819050919050565b620003508362000313565b620003686200035f826200033b565b848454620002a9565b825550505050565b600090565b6200037f62000370565b6200038c81848462000345565b505050565b5b81811015620003b457620003a860008262000375565b60018101905062000392565b5050565b601f8211156200040357620003cd8162000277565b620003d8846200028c565b81016020851015620003e8578190505b62000400620003f7856200028c565b83018262000391565b50505b505050565b600082821c905092915050565b6000620004286000198460080262000408565b1980831691505092915050565b600062000443838362000415565b9150826002028217905092915050565b6200045e82620001d9565b67ffffffffffffffff8111156200047a5762000479620001e4565b5b62000486825462000242565b62000493828285620003b8565b600060209050601f831160018114620004cb5760008415620004b6578287015190505b620004c2858262000435565b86555062000532565b601f198416620004db8662000277565b60005b828110156200050557848901518255600182019150602085019450602081019050620004de565b8683101562000525578489015162000521601f89168262000415565b8355505b6001600288020188555050505b505050505050565b613e0d806200054a6000396000f3fe6080604052600436106101b75760003560e01c8063715018a6116100ec578063bc31c1c11161008a578063dbd8d3ba11610064578063dbd8d3ba1461065c578063e36e308314610685578063e985e9c5146106c2578063f2fde38b146106ff576101b7565b8063bc31c1c1146105b9578063bdc0c4b8146105f6578063c87b56dd1461061f576101b7565b806397a993aa116100c657806397a993aa146104eb578063a22cb46514610529578063a9fcbad214610552578063b88d4fde14610590576101b7565b8063715018a61461047e5780638da5cb5b1461049557806395d89b41146104c0576101b7565b80632e72a2e51161015957806342842e0e1161013357806342842e0e146103b25780634e07602d146103db5780636352211e1461040457806370a0823114610441576101b7565b80632e72a2e51461032e57806335995e8f1461036b578063382b620f14610387576101b7565b8063095ea7b311610195578063095ea7b31461026157806316dc15fe1461028a5780631d62eaee146102c857806323b872dd14610305576101b7565b806301ffc9a7146101bc57806306fdde03146101f9578063081812fc14610224575b600080fd5b3480156101c857600080fd5b506101e360048036038101906101de9190612925565b610728565b6040516101f0919061296d565b60405180910390f35b34801561020557600080fd5b5061020e61080a565b60405161021b9190612a18565b60405180910390f35b34801561023057600080fd5b5061024b60048036038101906102469190612a70565b61089c565b6040516102589190612ade565b60405180910390f35b34801561026d57600080fd5b5061028860048036038101906102839190612b25565b6108e2565b005b34801561029657600080fd5b506102b160048036038101906102ac9190612b65565b6109f9565b6040516102bf929190612ba1565b60405180910390f35b3480156102d457600080fd5b506102ef60048036038101906102ea9190612d06565b610aa5565b6040516102fc9190612d75565b60405180910390f35b34801561031157600080fd5b5061032c60048036038101906103279190612d90565b610bff565b005b34801561033a57600080fd5b5061035560048036038101906103509190612a70565b610c5f565b6040516103629190612d75565b60405180910390f35b61038560048036038101906103809190612e21565b610c77565b005b34801561039357600080fd5b5061039c610e87565b6040516103a99190612ade565b60405180910390f35b3480156103be57600080fd5b506103d960048036038101906103d49190612d90565b610ead565b005b3480156103e757600080fd5b5061040260048036038101906103fd9190612d06565b610ecd565b005b34801561041057600080fd5b5061042b60048036038101906104269190612a70565b610fc3565b6040516104389190612ade565b60405180910390f35b34801561044d57600080fd5b5061046860048036038101906104639190612b65565b611049565b6040516104759190612d75565b60405180910390f35b34801561048a57600080fd5b50610493611100565b005b3480156104a157600080fd5b506104aa611114565b6040516104b79190612ade565b60405180910390f35b3480156104cc57600080fd5b506104d561113e565b6040516104e29190612a18565b60405180910390f35b3480156104f757600080fd5b50610512600480360381019061050d9190612b65565b6111d0565b604051610520929190612ba1565b60405180910390f35b34801561053557600080fd5b50610550600480360381019061054b9190612e8d565b61127c565b005b34801561055e57600080fd5b5061057960048036038101906105749190612b65565b611292565b604051610587929190612ba1565b60405180910390f35b34801561059c57600080fd5b506105b760048036038101906105b29190612f6e565b61133e565b005b3480156105c557600080fd5b506105e060048036038101906105db9190612a70565b6113a0565b6040516105ed9190612d75565b60405180910390f35b34801561060257600080fd5b5061061d60048036038101906106189190612d06565b6113b8565b005b34801561062b57600080fd5b5061064660048036038101906106419190612a70565b6114ae565b6040516106539190612a18565b60405180910390f35b34801561066857600080fd5b50610683600480360381019061067e9190612d06565b6115c0565b005b34801561069157600080fd5b506106ac60048036038101906106a79190612d06565b6116b6565b6040516106b99190612d75565b60405180910390f35b3480156106ce57600080fd5b506106e960048036038101906106e49190612ff1565b611810565b6040516106f6919061296d565b60405180910390f35b34801561070b57600080fd5b5061072660048036038101906107219190612b65565b6118a4565b005b60007f80ac58cd000000000000000000000000000000000000000000000000000000007bffffffffffffffffffffffffffffffffffffffffffffffffffffffff1916827bffffffffffffffffffffffffffffffffffffffffffffffffffffffff191614806107f357507f5b5e139f000000000000000000000000000000000000000000000000000000007bffffffffffffffffffffffffffffffffffffffffffffffffffffffff1916827bffffffffffffffffffffffffffffffffffffffffffffffffffffffff1916145b80610803575061080282611927565b5b9050919050565b60606000805461081990613060565b80601f016020809104026020016040519081016040528092919081815260200182805461084590613060565b80156108925780601f1061086757610100808354040283529160200191610892565b820191906000526020600020905b81548152906001019060200180831161087557829003601f168201915b5050505050905090565b60006108a782611991565b6004600083815260200190815260200160002060009054906101000a900473ffffffffffffffffffffffffffffffffffffffff169050919050565b60006108ed82610fc3565b90508073ffffffffffffffffffffffffffffffffffffffff168373ffffffffffffffffffffffffffffffffffffffff160361095d576040517f08c379a000000000000000000000000000000000000000000000000000000000815260040161095490613103565b60405180910390fd5b8073ffffffffffffffffffffffffffffffffffffffff1661097c6119dc565b73ffffffffffffffffffffffffffffffffffffffff1614806109ab57506109aa816109a56119dc565b611810565b5b6109ea576040517f08c379a00000000000000000000000000000000000000000000000000000000081526004016109e190613195565b60405180910390fd5b6109f483836119e4565b505050565b600c602052806000526040600020600091509050806000018054610a1c90613060565b80601f0160208091040260200160405190810160405280929190818152602001828054610a4890613060565b8015610a955780601f10610a6a57610100808354040283529160200191610a95565b820191906000526020600020905b815481529060010190602001808311610a7857829003601f168201915b5050505050908060010154905082565b600080600c60003373ffffffffffffffffffffffffffffffffffffffff1673ffffffffffffffffffffffffffffffffffffffff1681526020019081526020016000206001015403610b2b576040517f08c379a0000000000000000000000000000000000000000000000000000000008152600401610b2290613201565b60405180910390fd5b6000600d60008673ffffffffffffffffffffffffffffffffffffffff1673ffffffffffffffffffffffffffffffffffffffff1681526020019081526020016000206001015403610bb0576040517f08c379a0000000000000000000000000000000000000000000000000000000008152600401610ba79061326d565b60405180910390fd5b610bba6008611a9d565b6000610bc66008611ab3565b9050610bd28582611ac1565b610bdc8185611cde565b82600a600083815260200190815260200160002081905550809150509392505050565b610c10610c0a6119dc565b82611d4b565b610c4f576040517f08c379a0000000000000000000000000000000000000000000000000000000008152600401610c46906132ff565b60405180910390fd5b610c5a838383611de0565b505050565b600b6020528060005260406000206000915090505481565b600a6000600b600084815260200190815260200160002054815260200190815260200160002054341015610ce0576040517f08c379a0000000000000000000000000000000000000000000000000000000008152600401610cd790613391565b60405180910390fd5b6000600c60008473ffffffffffffffffffffffffffffffffffffffff1673ffffffffffffffffffffffffffffffffffffffff1681526020019081526020016000206001015403610d65576040517f08c379a0000000000000000000000000000000000000000000000000000000008152600401610d5c906133fd565b60405180910390fd5b3073ffffffffffffffffffffffffffffffffffffffff16636352211e826040518263ffffffff1660e01b8152600401610d9e9190612d75565b602060405180830381865afa158015610dbb573d6000803e3d6000fd5b505050506040513d601f19601f82011682018060405250810190610ddf9190613432565b73ffffffffffffffffffffffffffffffffffffffff163373ffffffffffffffffffffffffffffffffffffffff1614610e1657600080fd5b8173ffffffffffffffffffffffffffffffffffffffff166108fc600a6000600b6000868152602001908152602001600020548152602001908152602001600020549081150290604051600060405180830381858888f19350505050158015610e82573d6000803e3d6000fd5b505050565b600960009054906101000a900473ffffffffffffffffffffffffffffffffffffffff1681565b610ec88383836040518060200160405280600081525061133e565b505050565b600960009054906101000a900473ffffffffffffffffffffffffffffffffffffffff1673ffffffffffffffffffffffffffffffffffffffff163373ffffffffffffffffffffffffffffffffffffffff1614610f2757600080fd5b81600d60008573ffffffffffffffffffffffffffffffffffffffff1673ffffffffffffffffffffffffffffffffffffffff1681526020019081526020016000206000019081610f76919061360b565b5080600d60008573ffffffffffffffffffffffffffffffffffffffff1673ffffffffffffffffffffffffffffffffffffffff16815260200190815260200160002060010181905550505050565b600080610fcf836120d9565b9050600073ffffffffffffffffffffffffffffffffffffffff168173ffffffffffffffffffffffffffffffffffffffff1603611040576040517f08c379a000000000000000000000000000000000000000000000000000000000815260040161103790613729565b60405180910390fd5b80915050919050565b60008073ffffffffffffffffffffffffffffffffffffffff168273ffffffffffffffffffffffffffffffffffffffff16036110b9576040517f08c379a00000000000000000000000000000000000000000000000000000000081526004016110b0906137bb565b60405180910390fd5b600360008373ffffffffffffffffffffffffffffffffffffffff1673ffffffffffffffffffffffffffffffffffffffff168152602001908152602001600020549050919050565b611108612116565b6111126000612194565b565b6000600760009054906101000a900473ffffffffffffffffffffffffffffffffffffffff16905090565b60606001805461114d90613060565b80601f016020809104026020016040519081016040528092919081815260200182805461117990613060565b80156111c65780601f1061119b576101008083540402835291602001916111c6565b820191906000526020600020905b8154815290600101906020018083116111a957829003601f168201915b5050505050905090565b600d6020528060005260406000206000915090508060000180546111f390613060565b80601f016020809104026020016040519081016040528092919081815260200182805461121f90613060565b801561126c5780601f106112415761010080835404028352916020019161126c565b820191906000526020600020905b81548152906001019060200180831161124f57829003601f168201915b5050505050908060010154905082565b61128e6112876119dc565b838361225a565b5050565b600e6020528060005260406000206000915090508060000180546112b590613060565b80601f01602080910402602001604051908101604052809291908181526020018280546112e190613060565b801561132e5780601f106113035761010080835404028352916020019161132e565b820191906000526020600020905b81548152906001019060200180831161131157829003601f168201915b5050505050908060010154905082565b61134f6113496119dc565b83611d4b565b61138e576040517f08c379a0000000000000000000000000000000000000000000000000000000008152600401611385906132ff565b60405180910390fd5b61139a848484846123c6565b50505050565b600a6020528060005260406000206000915090505481565b600960009054906101000a900473ffffffffffffffffffffffffffffffffffffffff1673ffffffffffffffffffffffffffffffffffffffff163373ffffffffffffffffffffffffffffffffffffffff161461141257600080fd5b81600e60008573ffffffffffffffffffffffffffffffffffffffff1673ffffffffffffffffffffffffffffffffffffffff1681526020019081526020016000206000019081611461919061360b565b5080600e60008573ffffffffffffffffffffffffffffffffffffffff1673ffffffffffffffffffffffffffffffffffffffff16815260200190815260200160002060010181905550505050565b60606114b982611991565b60006006600084815260200190815260200160002080546114d990613060565b80601f016020809104026020016040519081016040528092919081815260200182805461150590613060565b80156115525780601f1061152757610100808354040283529160200191611552565b820191906000526020600020905b81548152906001019060200180831161153557829003601f168201915b505050505090506000611563612422565b905060008151036115785781925050506115bb565b6000825111156115ad578082604051602001611595929190613817565b604051602081830303815290604052925050506115bb565b6115b684612439565b925050505b919050565b600960009054906101000a900473ffffffffffffffffffffffffffffffffffffffff1673ffffffffffffffffffffffffffffffffffffffff163373ffffffffffffffffffffffffffffffffffffffff161461161a57600080fd5b81600c60008573ffffffffffffffffffffffffffffffffffffffff1673ffffffffffffffffffffffffffffffffffffffff1681526020019081526020016000206000019081611669919061360b565b5080600c60008573ffffffffffffffffffffffffffffffffffffffff1673ffffffffffffffffffffffffffffffffffffffff16815260200190815260200160002060010181905550505050565b600080600d60003373ffffffffffffffffffffffffffffffffffffffff1673ffffffffffffffffffffffffffffffffffffffff168152602001908152602001600020600101540361173c576040517f08c379a00000000000000000000000000000000000000000000000000000000081526004016117339061326d565b60405180910390fd5b6000600c60008673ffffffffffffffffffffffffffffffffffffffff1673ffffffffffffffffffffffffffffffffffffffff16815260200190815260200160002060010154036117c1576040517f08c379a00000000000000000000000000000000000000000000000000000000081526004016117b890613201565b60405180910390fd5b6117cb6008611a9d565b60006117d76008611ab3565b90506117e38582611ac1565b6117ed8185611cde565b82600b600083815260200190815260200160002081905550809150509392505050565b6000600560008473ffffffffffffffffffffffffffffffffffffffff1673ffffffffffffffffffffffffffffffffffffffff16815260200190815260200160002060008373ffffffffffffffffffffffffffffffffffffffff1673ffffffffffffffffffffffffffffffffffffffff16815260200190815260200160002060009054906101000a900460ff16905092915050565b6118ac612116565b600073ffffffffffffffffffffffffffffffffffffffff168173ffffffffffffffffffffffffffffffffffffffff160361191b576040517f08c379a0000000000000000000000000000000000000000000000000000000008152600401611912906138ad565b60405180910390fd5b61192481612194565b50565b60007f01ffc9a7000000000000000000000000000000000000000000000000000000007bffffffffffffffffffffffffffffffffffffffffffffffffffffffff1916827bffffffffffffffffffffffffffffffffffffffffffffffffffffffff1916149050919050565b61199a816124a1565b6119d9576040517f08c379a00000000000000000000000000000000000000000000000000000000081526004016119d090613729565b60405180910390fd5b50565b600033905090565b816004600083815260200190815260200160002060006101000a81548173ffffffffffffffffffffffffffffffffffffffff021916908373ffffffffffffffffffffffffffffffffffffffff160217905550808273ffffffffffffffffffffffffffffffffffffffff16611a5783610fc3565b73ffffffffffffffffffffffffffffffffffffffff167f8c5be1e5ebec7d5bd14f71427d1e84f3dd0314c0f7b2291e5b200ac8c7c3b92560405160405180910390a45050565b6001816000016000828254019250508190555050565b600081600001549050919050565b600073ffffffffffffffffffffffffffffffffffffffff168273ffffffffffffffffffffffffffffffffffffffff1603611b30576040517f08c379a0000000000000000000000000000000000000000000000000000000008152600401611b2790613919565b60405180910390fd5b611b39816124a1565b15611b79576040517f08c379a0000000000000000000000000000000000000000000000000000000008152600401611b7090613985565b60405180910390fd5b611b876000838360016124e2565b611b90816124a1565b15611bd0576040517f08c379a0000000000000000000000000000000000000000000000000000000008152600401611bc790613985565b60405180910390fd5b6001600360008473ffffffffffffffffffffffffffffffffffffffff1673ffffffffffffffffffffffffffffffffffffffff16815260200190815260200160002060008282540192505081905550816002600083815260200190815260200160002060006101000a81548173ffffffffffffffffffffffffffffffffffffffff021916908373ffffffffffffffffffffffffffffffffffffffff160217905550808273ffffffffffffffffffffffffffffffffffffffff16600073ffffffffffffffffffffffffffffffffffffffff167fddf252ad1be2c89b69c2b068fc378daa952ba7f163c4a11628f55a4df523b3ef60405160405180910390a4611cda6000838360016124e8565b5050565b611ce7826124a1565b611d26576040517f08c379a0000000000000000000000000000000000000000000000000000000008152600401611d1d90613a17565b60405180910390fd5b80600660008481526020019081526020016000209081611d46919061360b565b505050565b600080611d5783610fc3565b90508073ffffffffffffffffffffffffffffffffffffffff168473ffffffffffffffffffffffffffffffffffffffff161480611d995750611d988185611810565b5b80611dd757508373ffffffffffffffffffffffffffffffffffffffff16611dbf8461089c565b73ffffffffffffffffffffffffffffffffffffffff16145b91505092915050565b8273ffffffffffffffffffffffffffffffffffffffff16611e0082610fc3565b73ffffffffffffffffffffffffffffffffffffffff1614611e56576040517f08c379a0000000000000000000000000000000000000000000000000000000008152600401611e4d90613aa9565b60405180910390fd5b600073ffffffffffffffffffffffffffffffffffffffff168273ffffffffffffffffffffffffffffffffffffffff1603611ec5576040517f08c379a0000000000000000000000000000000000000000000000000000000008152600401611ebc90613b3b565b60405180910390fd5b611ed283838360016124e2565b8273ffffffffffffffffffffffffffffffffffffffff16611ef282610fc3565b73ffffffffffffffffffffffffffffffffffffffff1614611f48576040517f08c379a0000000000000000000000000000000000000000000000000000000008152600401611f3f90613aa9565b60405180910390fd5b6004600082815260200190815260200160002060006101000a81549073ffffffffffffffffffffffffffffffffffffffff02191690556001600360008573ffffffffffffffffffffffffffffffffffffffff1673ffffffffffffffffffffffffffffffffffffffff168152602001908152602001600020600082825403925050819055506001600360008473ffffffffffffffffffffffffffffffffffffffff1673ffffffffffffffffffffffffffffffffffffffff16815260200190815260200160002060008282540192505081905550816002600083815260200190815260200160002060006101000a81548173ffffffffffffffffffffffffffffffffffffffff021916908373ffffffffffffffffffffffffffffffffffffffff160217905550808273ffffffffffffffffffffffffffffffffffffffff168473ffffffffffffffffffffffffffffffffffffffff167fddf252ad1be2c89b69c2b068fc378daa952ba7f163c4a11628f55a4df523b3ef60405160405180910390a46120d483838360016124e8565b505050565b60006002600083815260200190815260200160002060009054906101000a900473ffffffffffffffffffffffffffffffffffffffff169050919050565b61211e6119dc565b73ffffffffffffffffffffffffffffffffffffffff1661213c611114565b73ffffffffffffffffffffffffffffffffffffffff1614612192576040517f08c379a000000000000000000000000000000000000000000000000000000000815260040161218990613ba7565b60405180910390fd5b565b6000600760009054906101000a900473ffffffffffffffffffffffffffffffffffffffff16905081600760006101000a81548173ffffffffffffffffffffffffffffffffffffffff021916908373ffffffffffffffffffffffffffffffffffffffff1602179055508173ffffffffffffffffffffffffffffffffffffffff168173ffffffffffffffffffffffffffffffffffffffff167f8be0079c531659141344cd1fd0a4f28419497f9722a3daafe3b4186f6b6457e060405160405180910390a35050565b8173ffffffffffffffffffffffffffffffffffffffff168373ffffffffffffffffffffffffffffffffffffffff16036122c8576040517f08c379a00000000000000000000000000000000000000000000000000000000081526004016122bf90613c13565b60405180910390fd5b80600560008573ffffffffffffffffffffffffffffffffffffffff1673ffffffffffffffffffffffffffffffffffffffff16815260200190815260200160002060008473ffffffffffffffffffffffffffffffffffffffff1673ffffffffffffffffffffffffffffffffffffffff16815260200190815260200160002060006101000a81548160ff0219169083151502179055508173ffffffffffffffffffffffffffffffffffffffff168373ffffffffffffffffffffffffffffffffffffffff167f17307eab39ab6107e8899845ad3d59bd9653f200f220920489ca2b5937696c31836040516123b9919061296d565b60405180910390a3505050565b6123d1848484611de0565b6123dd848484846124ee565b61241c576040517f08c379a000000000000000000000000000000000000000000000000000000000815260040161241390613ca5565b60405180910390fd5b50505050565b606060405180602001604052806000815250905090565b606061244482611991565b600061244e612422565b9050600081511161246e5760405180602001604052806000815250612499565b8061247884612675565b604051602001612489929190613817565b6040516020818303038152906040525b915050919050565b60008073ffffffffffffffffffffffffffffffffffffffff166124c3836120d9565b73ffffffffffffffffffffffffffffffffffffffff1614159050919050565b50505050565b50505050565b600061250f8473ffffffffffffffffffffffffffffffffffffffff16612743565b15612668578373ffffffffffffffffffffffffffffffffffffffff1663150b7a026125386119dc565b8786866040518563ffffffff1660e01b815260040161255a9493929190613d1a565b6020604051808303816000875af192505050801561259657506040513d601f19601f820116820180604052508101906125939190613d7b565b60015b612618573d80600081146125c6576040519150601f19603f3d011682016040523d82523d6000602084013e6125cb565b606091505b506000815103612610576040517f08c379a000000000000000000000000000000000000000000000000000000000815260040161260790613ca5565b60405180910390fd5b805181602001fd5b63150b7a0260e01b7bffffffffffffffffffffffffffffffffffffffffffffffffffffffff1916817bffffffffffffffffffffffffffffffffffffffffffffffffffffffff19161491505061266d565b600190505b949350505050565b60606000600161268484612766565b01905060008167ffffffffffffffff8111156126a3576126a2612bdb565b5b6040519080825280601f01601f1916602001820160405280156126d55781602001600182028036833780820191505090505b509050600082602001820190505b600115612738578080600190039150507f3031323334353637383961626364656600000000000000000000000000000000600a86061a8153600a858161272c5761272b613da8565b5b049450600085036126e3575b819350505050919050565b6000808273ffffffffffffffffffffffffffffffffffffffff163b119050919050565b600080600090507a184f03e93ff9f4daa797ed6e38ed64bf6a1f01000000000000000083106127c4577a184f03e93ff9f4daa797ed6e38ed64bf6a1f01000000000000000083816127ba576127b9613da8565b5b0492506040810190505b6d04ee2d6d415b85acef81000000008310612801576d04ee2d6d415b85acef810000000083816127f7576127f6613da8565b5b0492506020810190505b662386f26fc10000831061283057662386f26fc10000838161282657612825613da8565b5b0492506010810190505b6305f5e1008310612859576305f5e100838161284f5761284e613da8565b5b0492506008810190505b612710831061287e57612710838161287457612873613da8565b5b0492506004810190505b606483106128a1576064838161289757612896613da8565b5b0492506002810190505b600a83106128b0576001810190505b80915050919050565b6000604051905090565b600080fd5b600080fd5b60007fffffffff0000000000000000000000000000000000000000000000000000000082169050919050565b612902816128cd565b811461290d57600080fd5b50565b60008135905061291f816128f9565b92915050565b60006020828403121561293b5761293a6128c3565b5b600061294984828501612910565b91505092915050565b60008115159050919050565b61296781612952565b82525050565b6000602082019050612982600083018461295e565b92915050565b600081519050919050565b600082825260208201905092915050565b60005b838110156129c25780820151818401526020810190506129a7565b60008484015250505050565b6000601f19601f8301169050919050565b60006129ea82612988565b6129f48185612993565b9350612a048185602086016129a4565b612a0d816129ce565b840191505092915050565b60006020820190508181036000830152612a3281846129df565b905092915050565b6000819050919050565b612a4d81612a3a565b8114612a5857600080fd5b50565b600081359050612a6a81612a44565b92915050565b600060208284031215612a8657612a856128c3565b5b6000612a9484828501612a5b565b91505092915050565b600073ffffffffffffffffffffffffffffffffffffffff82169050919050565b6000612ac882612a9d565b9050919050565b612ad881612abd565b82525050565b6000602082019050612af36000830184612acf565b92915050565b612b0281612abd565b8114612b0d57600080fd5b50565b600081359050612b1f81612af9565b92915050565b60008060408385031215612b3c57612b3b6128c3565b5b6000612b4a85828601612b10565b9250506020612b5b85828601612a5b565b9150509250929050565b600060208284031215612b7b57612b7a6128c3565b5b6000612b8984828501612b10565b91505092915050565b612b9b81612a3a565b82525050565b60006040820190508181036000830152612bbb81856129df565b9050612bca6020830184612b92565b9392505050565b600080fd5b600080fd5b7f4e487b7100000000000000000000000000000000000000000000000000000000600052604160045260246000fd5b612c13826129ce565b810181811067ffffffffffffffff82111715612c3257612c31612bdb565b5b80604052505050565b6000612c456128b9565b9050612c518282612c0a565b919050565b600067ffffffffffffffff821115612c7157612c70612bdb565b5b612c7a826129ce565b9050602081019050919050565b82818337600083830152505050565b6000612ca9612ca484612c56565b612c3b565b905082815260208101848484011115612cc557612cc4612bd6565b5b612cd0848285612c87565b509392505050565b600082601f830112612ced57612cec612bd1565b5b8135612cfd848260208601612c96565b91505092915050565b600080600060608486031215612d1f57612d1e6128c3565b5b6000612d2d86828701612b10565b935050602084013567ffffffffffffffff811115612d4e57612d4d6128c8565b5b612d5a86828701612cd8565b9250506040612d6b86828701612a5b565b9150509250925092565b6000602082019050612d8a6000830184612b92565b92915050565b600080600060608486031215612da957612da86128c3565b5b6000612db786828701612b10565b9350506020612dc886828701612b10565b9250506040612dd986828701612a5b565b9150509250925092565b6000612dee82612a9d565b9050919050565b612dfe81612de3565b8114612e0957600080fd5b50565b600081359050612e1b81612df5565b92915050565b60008060408385031215612e3857612e376128c3565b5b6000612e4685828601612e0c565b9250506020612e5785828601612a5b565b9150509250929050565b612e6a81612952565b8114612e7557600080fd5b50565b600081359050612e8781612e61565b92915050565b60008060408385031215612ea457612ea36128c3565b5b6000612eb285828601612b10565b9250506020612ec385828601612e78565b9150509250929050565b600067ffffffffffffffff821115612ee857612ee7612bdb565b5b612ef1826129ce565b9050602081019050919050565b6000612f11612f0c84612ecd565b612c3b565b905082815260208101848484011115612f2d57612f2c612bd6565b5b612f38848285612c87565b509392505050565b600082601f830112612f5557612f54612bd1565b5b8135612f65848260208601612efe565b91505092915050565b60008060008060808587031215612f8857612f876128c3565b5b6000612f9687828801612b10565b9450506020612fa787828801612b10565b9350506040612fb887828801612a5b565b925050606085013567ffffffffffffffff811115612fd957612fd86128c8565b5b612fe587828801612f40565b91505092959194509250565b60008060408385031215613008576130076128c3565b5b600061301685828601612b10565b925050602061302785828601612b10565b9150509250929050565b7f4e487b7100000000000000000000000000000000000000000000000000000000600052602260045260246000fd5b6000600282049050600182168061307857607f821691505b60208210810361308b5761308a613031565b5b50919050565b7f4552433732313a20617070726f76616c20746f2063757272656e74206f776e6560008201527f7200000000000000000000000000000000000000000000000000000000000000602082015250565b60006130ed602183612993565b91506130f882613091565b604082019050919050565b6000602082019050818103600083015261311c816130e0565b9050919050565b7f4552433732313a20617070726f76652063616c6c6572206973206e6f7420746f60008201527f6b656e206f776e6572206f7220617070726f76656420666f7220616c6c000000602082015250565b600061317f603d83612993565b915061318a82613123565b604082019050919050565b600060208201905081810360008301526131ae81613172565b9050919050565b7f737570706c696572206973206e6f742076616c69640000000000000000000000600082015250565b60006131eb601583612993565b91506131f6826131b5565b602082019050919050565b6000602082019050818103600083015261321a816131de565b9050919050565b7f6275796572206973206e6f742076616c69640000000000000000000000000000600082015250565b6000613257601283612993565b915061326282613221565b602082019050919050565b600060208201905081810360008301526132868161324a565b9050919050565b7f4552433732313a2063616c6c6572206973206e6f7420746f6b656e206f776e6560008201527f72206f7220617070726f76656400000000000000000000000000000000000000602082015250565b60006132e9602d83612993565b91506132f48261328d565b604082019050919050565b60006020820190508181036000830152613318816132dc565b9050919050565b7f596f752068617665206e6f742073656e742073756666696369656e742066756e60008201527f6421210000000000000000000000000000000000000000000000000000000000602082015250565b600061337b602383612993565b91506133868261331f565b604082019050919050565b600060208201905081810360008301526133aa8161336e565b9050919050565b7f737570706c6965722061646472657373206973206e6f742076616c6965640000600082015250565b60006133e7601e83612993565b91506133f2826133b1565b602082019050919050565b60006020820190508181036000830152613416816133da565b9050919050565b60008151905061342c81612af9565b92915050565b600060208284031215613448576134476128c3565b5b60006134568482850161341d565b91505092915050565b60008190508160005260206000209050919050565b60006020601f8301049050919050565b600082821b905092915050565b6000600883026134c17fffffffffffffffffffffffffffffffffffffffffffffffffffffffffffffffff82613484565b6134cb8683613484565b95508019841693508086168417925050509392505050565b6000819050919050565b60006135086135036134fe84612a3a565b6134e3565b612a3a565b9050919050565b6000819050919050565b613522836134ed565b61353661352e8261350f565b848454613491565b825550505050565b600090565b61354b61353e565b613556818484613519565b505050565b5b8181101561357a5761356f600082613543565b60018101905061355c565b5050565b601f8211156135bf576135908161345f565b61359984613474565b810160208510156135a8578190505b6135bc6135b485613474565b83018261355b565b50505b505050565b600082821c905092915050565b60006135e2600019846008026135c4565b1980831691505092915050565b60006135fb83836135d1565b9150826002028217905092915050565b61361482612988565b67ffffffffffffffff81111561362d5761362c612bdb565b5b6136378254613060565b61364282828561357e565b600060209050601f8311600181146136755760008415613663578287015190505b61366d85826135ef565b8655506136d5565b601f1984166136838661345f565b60005b828110156136ab57848901518255600182019150602085019450602081019050613686565b868310156136c857848901516136c4601f8916826135d1565b8355505b6001600288020188555050505b505050505050565b7f4552433732313a20696e76616c696420746f6b656e2049440000000000000000600082015250565b6000613713601883612993565b915061371e826136dd565b602082019050919050565b6000602082019050818103600083015261374281613706565b9050919050565b7f4552433732313a2061646472657373207a65726f206973206e6f74206120766160008201527f6c6964206f776e65720000000000000000000000000000000000000000000000602082015250565b60006137a5602983612993565b91506137b082613749565b604082019050919050565b600060208201905081810360008301526137d481613798565b9050919050565b600081905092915050565b60006137f182612988565b6137fb81856137db565b935061380b8185602086016129a4565b80840191505092915050565b600061382382856137e6565b915061382f82846137e6565b91508190509392505050565b7f4f776e61626c653a206e6577206f776e657220697320746865207a65726f206160008201527f6464726573730000000000000000000000000000000000000000000000000000602082015250565b6000613897602683612993565b91506138a28261383b565b604082019050919050565b600060208201905081810360008301526138c68161388a565b9050919050565b7f4552433732313a206d696e7420746f20746865207a65726f2061646472657373600082015250565b6000613903602083612993565b915061390e826138cd565b602082019050919050565b60006020820190508181036000830152613932816138f6565b9050919050565b7f4552433732313a20746f6b656e20616c7265616479206d696e74656400000000600082015250565b600061396f601c83612993565b915061397a82613939565b602082019050919050565b6000602082019050818103600083015261399e81613962565b9050919050565b7f45524337323155524953746f726167653a2055524920736574206f66206e6f6e60008201527f6578697374656e7420746f6b656e000000000000000000000000000000000000602082015250565b6000613a01602e83612993565b9150613a0c826139a5565b604082019050919050565b60006020820190508181036000830152613a30816139f4565b9050919050565b7f4552433732313a207472616e736665722066726f6d20696e636f72726563742060008201527f6f776e6572000000000000000000000000000000000000000000000000000000602082015250565b6000613a93602583612993565b9150613a9e82613a37565b604082019050919050565b60006020820190508181036000830152613ac281613a86565b9050919050565b7f4552433732313a207472616e7366657220746f20746865207a65726f2061646460008201527f7265737300000000000000000000000000000000000000000000000000000000602082015250565b6000613b25602483612993565b9150613b3082613ac9565b604082019050919050565b60006020820190508181036000830152613b5481613b18565b9050919050565b7f4f776e61626c653a2063616c6c6572206973206e6f7420746865206f776e6572600082015250565b6000613b91602083612993565b9150613b9c82613b5b565b602082019050919050565b60006020820190508181036000830152613bc081613b84565b9050919050565b7f4552433732313a20617070726f766520746f2063616c6c657200000000000000600082015250565b6000613bfd601983612993565b9150613c0882613bc7565b602082019050919050565b60006020820190508181036000830152613c2c81613bf0565b9050919050565b7f4552433732313a207472616e7366657220746f206e6f6e20455243373231526560008201527f63656976657220696d706c656d656e7465720000000000000000000000000000602082015250565b6000613c8f603283612993565b9150613c9a82613c33565b604082019050919050565b60006020820190508181036000830152613cbe81613c82565b9050919050565b600081519050919050565b600082825260208201905092915050565b6000613cec82613cc5565b613cf68185613cd0565b9350613d068185602086016129a4565b613d0f816129ce565b840191505092915050565b6000608082019050613d2f6000830187612acf565b613d3c6020830186612acf565b613d496040830185612b92565b8181036060830152613d5b8184613ce1565b905095945050505050565b600081519050613d75816128f9565b92915050565b600060208284031215613d9157613d906128c3565b5b6000613d9f84828501613d66565b91505092915050565b7f4e487b7100000000000000000000000000000000000000000000000000000000600052601260045260246000fdfea26469706673582212207bfab54ca1238e41092d6e6c7a76e064149916145e6ecaba6c879601ea9f1ccb64736f6c63430008110033",
  "linkReferences": {},
  "deployedLinkReferences": {}
}